{
  "contractName": "Dwitter",
  "abi": [
    {
      "inputs": [],
      "stateMutability": "nonpayable",
      "type": "constructor"
    },
    {
      "anonymous": false,
      "inputs": [
        {
          "indexed": true,
          "internalType": "address",
          "name": "previousOwner",
          "type": "address"
        },
        {
          "indexed": true,
          "internalType": "address",
          "name": "newOwner",
          "type": "address"
        }
      ],
      "name": "OwnershipTransferred",
      "type": "event"
    },
    {
      "inputs": [
        {
          "internalType": "uint256",
          "name": "_fee",
          "type": "uint256"
        }
      ],
      "name": "SetFee",
      "outputs": [],
      "stateMutability": "nonpayable",
      "type": "function"
    },
    {
      "inputs": [],
      "name": "getFee",
      "outputs": [
        {
          "internalType": "uint256",
          "name": "",
          "type": "uint256"
        }
      ],
      "stateMutability": "view",
      "type": "function",
      "constant": true
    },
    {
      "inputs": [],
      "name": "owner",
      "outputs": [
        {
          "internalType": "address",
          "name": "",
          "type": "address"
        }
      ],
      "stateMutability": "view",
      "type": "function",
      "constant": true
    },
    {
      "inputs": [],
      "name": "renounceOwnership",
      "outputs": [],
      "stateMutability": "nonpayable",
      "type": "function"
    },
    {
      "inputs": [
        {
          "internalType": "address",
          "name": "newOwner",
          "type": "address"
        }
      ],
      "name": "transferOwnership",
      "outputs": [],
      "stateMutability": "nonpayable",
      "type": "function"
    },
    {
      "inputs": [
        {
          "internalType": "address",
          "name": "newOwner",
          "type": "address"
        }
      ],
      "name": "transferOwnership2",
      "outputs": [],
      "stateMutability": "nonpayable",
      "type": "function"
    },
    {
      "inputs": [
        {
          "internalType": "string",
          "name": "_messaggio",
          "type": "string"
        }
      ],
      "name": "setNewDwitter",
      "outputs": [],
      "stateMutability": "payable",
      "type": "function",
      "payable": true
    },
    {
      "inputs": [],
      "name": "getgetFee",
      "outputs": [
        {
          "internalType": "uint256",
          "name": "",
          "type": "uint256"
        }
      ],
      "stateMutability": "view",
      "type": "function",
      "constant": true
    },
    {
      "inputs": [],
      "name": "getDwitters",
      "outputs": [
        {
          "components": [
            {
              "internalType": "string",
              "name": "text",
              "type": "string"
            },
            {
              "internalType": "address",
              "name": "owner",
              "type": "address"
            },
            {
              "internalType": "uint256",
              "name": "timestamp",
              "type": "uint256"
            }
          ],
          "internalType": "struct Dwitter.Dwitt[]",
          "name": "",
          "type": "tuple[]"
        }
      ],
      "stateMutability": "view",
      "type": "function",
      "constant": true
    },
    {
      "inputs": [
        {
          "internalType": "uint256",
          "name": "id",
          "type": "uint256"
        }
      ],
      "name": "getDwitterId",
      "outputs": [
        {
          "internalType": "string",
          "name": "",
          "type": "string"
        },
        {
          "internalType": "address",
          "name": "",
          "type": "address"
        },
        {
          "internalType": "uint256",
          "name": "",
          "type": "uint256"
        }
      ],
      "stateMutability": "view",
      "type": "function",
      "constant": true
    },
    {
      "inputs": [
        {
          "internalType": "address",
          "name": "myAddress",
          "type": "address"
        }
      ],
      "name": "myDwitter",
      "outputs": [
        {
          "internalType": "uint256[]",
          "name": "",
          "type": "uint256[]"
        }
      ],
      "stateMutability": "view",
      "type": "function",
      "constant": true
    },
    {
      "inputs": [],
      "name": "withdrawDwitter",
      "outputs": [],
      "stateMutability": "nonpayable",
      "type": "function"
    },
    {
      "inputs": [],
      "name": "getStopped",
      "outputs": [
        {
          "internalType": "bool",
          "name": "",
          "type": "bool"
        }
      ],
      "stateMutability": "view",
      "type": "function",
      "constant": true
    },
    {
      "inputs": [],
      "name": "setCircuitBreaker",
      "outputs": [],
      "stateMutability": "nonpayable",
      "type": "function"
    }
  ],
  "bytecode": "0x60806040526000600260006101000a81548160ff02191690831515021790555034801561002b57600080fd5b5061004861003d61005d60201b60201c565b61006560201b60201c565b6000600181905550608c600481905550610129565b600033905090565b60008060009054906101000a900473ffffffffffffffffffffffffffffffffffffffff169050816000806101000a81548173ffffffffffffffffffffffffffffffffffffffff021916908373ffffffffffffffffffffffffffffffffffffffff1602179055508173ffffffffffffffffffffffffffffffffffffffff168173ffffffffffffffffffffffffffffffffffffffff167f8be0079c531659141344cd1fd0a4f28419497f9722a3daafe3b4186f6b6457e060405160405180910390a35050565b611809806101386000396000f3fe6080604052600436106100dc5760003560e01c80639d093a791161007f578063ced72f8711610059578063ced72f871461027c578063e2b375a9146102a7578063f2fde38b146102d0578063fab21e16146102f9576100dc565b80639d093a79146101fb578063ac50100914610212578063c205fca81461023d576100dc565b80636e245010116100bb5780636e24501014610151578063715018a61461017c57806375031417146101935780638da5cb5b146101d0576100dc565b8062172ddf146100e1578063197419d51461010a57806320a3220114610135575b600080fd5b3480156100ed57600080fd5b5061010860048036038101906101039190610ed6565b610310565b005b34801561011657600080fd5b5061011f6103b9565b60405161012c9190610f1e565b60405180910390f35b61014f600480360381019061014a919061107f565b6103d0565b005b34801561015d57600080fd5b5061016661053f565b60405161017391906112b2565b60405180910390f35b34801561018857600080fd5b50610191610690565b005b34801561019f57600080fd5b506101ba60048036038101906101b59190611300565b610718565b6040516101c791906113dc565b60405180910390f35b3480156101dc57600080fd5b506101e56107af565b6040516101f2919061140d565b60405180910390f35b34801561020757600080fd5b506102106107d8565b005b34801561021e57600080fd5b50610227610928565b6040516102349190611437565b60405180910390f35b34801561024957600080fd5b50610264600480360381019061025f9190610ed6565b610937565b6040516102739392919061149c565b60405180910390f35b34801561028857600080fd5b50610291610a66565b60405161029e9190611437565b60405180910390f35b3480156102b357600080fd5b506102ce60048036038101906102c99190611300565b610a70565b005b3480156102dc57600080fd5b506102f760048036038101906102f29190611300565b610b7d565b005b34801561030557600080fd5b5061030e610c75565b005b610318610d1d565b73ffffffffffffffffffffffffffffffffffffffff166103366107af565b73ffffffffffffffffffffffffffffffffffffffff161461038c576040517f08c379a000000000000000000000000000000000000000000000000000000000815260040161038390611526565b60405180910390fd5b600260009054906101000a900460ff166103b657600080826103ae9190611575565b600181905550505b50565b6000600260009054906101000a900460ff16905090565b600260009054906101000a900460ff1661053c576103ec610a66565b3410156103f857600080fd5b600360405180606001604052808381526020013373ffffffffffffffffffffffffffffffffffffffff1681526020014281525090806001815401808255809150506001900390600052602060002090600302016000909190919091506000820151816000019080519060200190610470929190610de9565b5060208201518160010160006101000a81548173ffffffffffffffffffffffffffffffffffffffff021916908373ffffffffffffffffffffffffffffffffffffffff160217905550604082015181600201555050600560003373ffffffffffffffffffffffffffffffffffffffff1673ffffffffffffffffffffffffffffffffffffffff168152602001908152602001600020600160038054905061051591906115cb565b90806001815401808255809150506001900390600052602060002001600090919091909150555b50565b60606003805480602002602001604051908101604052809291908181526020016000905b8282101561068757838290600052602060002090600302016040518060600160405290816000820180546105969061162e565b80601f01602080910402602001604051908101604052809291908181526020018280546105c29061162e565b801561060f5780601f106105e45761010080835404028352916020019161060f565b820191906000526020600020905b8154815290600101906020018083116105f257829003601f168201915b505050505081526020016001820160009054906101000a900473ffffffffffffffffffffffffffffffffffffffff1673ffffffffffffffffffffffffffffffffffffffff1673ffffffffffffffffffffffffffffffffffffffff16815260200160028201548152505081526020019060010190610563565b50505050905090565b610698610d1d565b73ffffffffffffffffffffffffffffffffffffffff166106b66107af565b73ffffffffffffffffffffffffffffffffffffffff161461070c576040517f08c379a000000000000000000000000000000000000000000000000000000000815260040161070390611526565b60405180910390fd5b6107166000610d25565b565b6060600560008373ffffffffffffffffffffffffffffffffffffffff1673ffffffffffffffffffffffffffffffffffffffff1681526020019081526020016000208054806020026020016040519081016040528092919081815260200182805480156107a357602002820191906000526020600020905b81548152602001906001019080831161078f575b50505050509050919050565b60008060009054906101000a900473ffffffffffffffffffffffffffffffffffffffff16905090565b6107e0610d1d565b73ffffffffffffffffffffffffffffffffffffffff166107fe6107af565b73ffffffffffffffffffffffffffffffffffffffff1614610854576040517f08c379a000000000000000000000000000000000000000000000000000000000815260040161084b90611526565b60405180910390fd5b600260009054906101000a900460ff166109265760006108726107af565b90506000808273ffffffffffffffffffffffffffffffffffffffff164760405161089b90611691565b60006040518083038185875af1925050503d80600081146108d8576040519150601f19603f3d011682016040523d82523d6000602084013e6108dd565b606091505b509150915081610922576040517f08c379a0000000000000000000000000000000000000000000000000000000008152600401610919906116f2565b60405180910390fd5b5050505b565b6000610932610a66565b905090565b6060600080600384815481106109505761094f611712565b5b90600052602060002090600302016000016003858154811061097557610974611712565b5b906000526020600020906003020160010160009054906101000a900473ffffffffffffffffffffffffffffffffffffffff16600386815481106109bb576109ba611712565b5b9060005260206000209060030201600201548280546109d99061162e565b80601f0160208091040260200160405190810160405280929190818152602001828054610a059061162e565b8015610a525780601f10610a2757610100808354040283529160200191610a52565b820191906000526020600020905b815481529060010190602001808311610a3557829003601f168201915b505050505092509250925092509193909250565b6000600154905090565b610a78610d1d565b73ffffffffffffffffffffffffffffffffffffffff16610a966107af565b73ffffffffffffffffffffffffffffffffffffffff1614610aec576040517f08c379a0000000000000000000000000000000000000000000000000000000008152600401610ae390611526565b60405180910390fd5b600260009054906101000a900460ff16610b7a57600073ffffffffffffffffffffffffffffffffffffffff168173ffffffffffffffffffffffffffffffffffffffff161415610b70576040517f08c379a0000000000000000000000000000000000000000000000000000000008152600401610b67906117b3565b60405180910390fd5b610b7981610d25565b5b50565b610b85610d1d565b73ffffffffffffffffffffffffffffffffffffffff16610ba36107af565b73ffffffffffffffffffffffffffffffffffffffff1614610bf9576040517f08c379a0000000000000000000000000000000000000000000000000000000008152600401610bf090611526565b60405180910390fd5b600073ffffffffffffffffffffffffffffffffffffffff168173ffffffffffffffffffffffffffffffffffffffff161415610c69576040517f08c379a0000000000000000000000000000000000000000000000000000000008152600401610c60906117b3565b60405180910390fd5b610c7281610d25565b50565b610c7d610d1d565b73ffffffffffffffffffffffffffffffffffffffff16610c9b6107af565b73ffffffffffffffffffffffffffffffffffffffff1614610cf1576040517f08c379a0000000000000000000000000000000000000000000000000000000008152600401610ce890611526565b60405180910390fd5b600260009054906101000a900460ff1615600260006101000a81548160ff021916908315150217905550565b600033905090565b60008060009054906101000a900473ffffffffffffffffffffffffffffffffffffffff169050816000806101000a81548173ffffffffffffffffffffffffffffffffffffffff021916908373ffffffffffffffffffffffffffffffffffffffff1602179055508173ffffffffffffffffffffffffffffffffffffffff168173ffffffffffffffffffffffffffffffffffffffff167f8be0079c531659141344cd1fd0a4f28419497f9722a3daafe3b4186f6b6457e060405160405180910390a35050565b828054610df59061162e565b90600052602060002090601f016020900481019282610e175760008555610e5e565b82601f10610e3057805160ff1916838001178555610e5e565b82800160010185558215610e5e579182015b82811115610e5d578251825591602001919060010190610e42565b5b509050610e6b9190610e6f565b5090565b5b80821115610e88576000816000905550600101610e70565b5090565b6000604051905090565b600080fd5b600080fd5b6000819050919050565b610eb381610ea0565b8114610ebe57600080fd5b50565b600081359050610ed081610eaa565b92915050565b600060208284031215610eec57610eeb610e96565b5b6000610efa84828501610ec1565b91505092915050565b60008115159050919050565b610f1881610f03565b82525050565b6000602082019050610f336000830184610f0f565b92915050565b600080fd5b600080fd5b6000601f19601f8301169050919050565b7f4e487b7100000000000000000000000000000000000000000000000000000000600052604160045260246000fd5b610f8c82610f43565b810181811067ffffffffffffffff82111715610fab57610faa610f54565b5b80604052505050565b6000610fbe610e8c565b9050610fca8282610f83565b919050565b600067ffffffffffffffff821115610fea57610fe9610f54565b5b610ff382610f43565b9050602081019050919050565b82818337600083830152505050565b600061102261101d84610fcf565b610fb4565b90508281526020810184848401111561103e5761103d610f3e565b5b611049848285611000565b509392505050565b600082601f83011261106657611065610f39565b5b813561107684826020860161100f565b91505092915050565b60006020828403121561109557611094610e96565b5b600082013567ffffffffffffffff8111156110b3576110b2610e9b565b5b6110bf84828501611051565b91505092915050565b600081519050919050565b600082825260208201905092915050565b6000819050602082019050919050565b600081519050919050565b600082825260208201905092915050565b60005b8381101561112e578082015181840152602081019050611113565b8381111561113d576000848401525b50505050565b600061114e826110f4565b61115881856110ff565b9350611168818560208601611110565b61117181610f43565b840191505092915050565b600073ffffffffffffffffffffffffffffffffffffffff82169050919050565b60006111a78261117c565b9050919050565b6111b78161119c565b82525050565b6111c681610ea0565b82525050565b600060608301600083015184820360008601526111e98282611143565b91505060208301516111fe60208601826111ae565b50604083015161121160408601826111bd565b508091505092915050565b600061122883836111cc565b905092915050565b6000602082019050919050565b6000611248826110c8565b61125281856110d3565b935083602082028501611264856110e4565b8060005b858110156112a05784840389528151611281858261121c565b945061128c83611230565b925060208a01995050600181019050611268565b50829750879550505050505092915050565b600060208201905081810360008301526112cc818461123d565b905092915050565b6112dd8161119c565b81146112e857600080fd5b50565b6000813590506112fa816112d4565b92915050565b60006020828403121561131657611315610e96565b5b6000611324848285016112eb565b91505092915050565b600081519050919050565b600082825260208201905092915050565b6000819050602082019050919050565b600061136583836111bd565b60208301905092915050565b6000602082019050919050565b60006113898261132d565b6113938185611338565b935061139e83611349565b8060005b838110156113cf5781516113b68882611359565b97506113c183611371565b9250506001810190506113a2565b5085935050505092915050565b600060208201905081810360008301526113f6818461137e565b905092915050565b6114078161119c565b82525050565b600060208201905061142260008301846113fe565b92915050565b61143181610ea0565b82525050565b600060208201905061144c6000830184611428565b92915050565b600082825260208201905092915050565b600061146e826110f4565b6114788185611452565b9350611488818560208601611110565b61149181610f43565b840191505092915050565b600060608201905081810360008301526114b68186611463565b90506114c560208301856113fe565b6114d26040830184611428565b949350505050565b7f4f776e61626c653a2063616c6c6572206973206e6f7420746865206f776e6572600082015250565b6000611510602083611452565b915061151b826114da565b602082019050919050565b6000602082019050818103600083015261153f81611503565b9050919050565b7f4e487b7100000000000000000000000000000000000000000000000000000000600052601160045260246000fd5b600061158082610ea0565b915061158b83610ea0565b9250827fffffffffffffffffffffffffffffffffffffffffffffffffffffffffffffffff038211156115c0576115bf611546565b5b828201905092915050565b60006115d682610ea0565b91506115e183610ea0565b9250828210156115f4576115f3611546565b5b828203905092915050565b7f4e487b7100000000000000000000000000000000000000000000000000000000600052602260045260246000fd5b6000600282049050600182168061164657607f821691505b6020821081141561165a576116596115ff565b5b50919050565b600081905092915050565b50565b600061167b600083611660565b91506116868261166b565b600082019050919050565b600061169c8261166e565b9150819050919050565b7f4661696c656420746f2073656e64204574686572000000000000000000000000600082015250565b60006116dc601483611452565b91506116e7826116a6565b602082019050919050565b6000602082019050818103600083015261170b816116cf565b9050919050565b7f4e487b7100000000000000000000000000000000000000000000000000000000600052603260045260246000fd5b7f4f776e61626c653a206e6577206f776e657220697320746865207a65726f206160008201527f6464726573730000000000000000000000000000000000000000000000000000602082015250565b600061179d602683611452565b91506117a882611741565b604082019050919050565b600060208201905081810360008301526117cc81611790565b905091905056fea2646970667358221220f184606ed74611aaeab34413f0716633ec70e2cede0cc97606ea0c2881321d4064736f6c634300080b0033",
  "immutableReferences": {},
  "source": "// SPDX-License-Identifier: MIT\r\npragma solidity ^0.8.10;\r\npragma abicoder v2;\r\n\r\nimport \"./feeDwitterManagment.sol\";\r\n\r\ncontract Dwitter is feeDwitterManagment {\r\n  \r\n  Dwitt[] private Dwitters;\r\n  uint characterLimitDwitter;\r\n\r\n  struct Dwitt{\r\n    string text;\r\n    address owner;\r\n    uint256 timestamp;\r\n    \r\n    }\r\n   \r\n mapping (address => uint[]) private ownerDwitter;\r\n\r\n  constructor (){\r\n    characterLimitDwitter=140;}\r\n\r\nfunction setNewDwitter(string memory _messaggio) external payable stopInEmergency\r\n{\r\n  require(msg.value >= getFee());\r\n  Dwitters.push(Dwitt(_messaggio,msg.sender,block.timestamp));\r\n  \r\n  ownerDwitter[msg.sender].push(Dwitters.length - 1);\r\n}\r\n\r\nfunction getgetFee() public view returns(uint){return getFee();}\r\n\r\nfunction getDwitters() public view returns (Dwitt[] memory){return Dwitters;}\r\n\r\nfunction getDwitterId(uint id) public view returns(string memory,address, uint256 ) \r\n{\r\n  return (Dwitters[id].text,Dwitters[id].owner,Dwitters[id].timestamp );\r\n}\r\n\r\nfunction myDwitter(address myAddress) public view returns(uint[] memory) {return ownerDwitter[myAddress];}\r\n\r\n\r\nfunction withdrawDwitter() public virtual onlyOwner stopInEmergency{\r\n    address _owner = owner();\r\n    (bool sent, bytes memory data) = _owner.call{value:address(this).balance}(\"\");\r\n    require(sent, \"Failed to send Ether\");\r\n  }\r\n function getStopped() public view returns(bool){return stopped;}\r\n\r\n   function setCircuitBreaker() public virtual onlyOwner{\r\n        stopped = !stopped;\r\n    }\r\n}",
  "sourcePath": "C:\\Users\\Fausto\\source\\repos\\oncelot\\dwitter\\contracts\\Dwitter.sol",
  "compiler": {
    "name": "solc",
    "version": "0.8.11+commit.d7f03943.Emscripten.clang"
  },
  "schemaVersion": "3.4.3",
  "updatedAt": "2022-01-18T14:28:54.498Z",
  "networkType": "ethereum",
  "devdoc": {
    "kind": "dev",
    "methods": {
      "owner()": {
        "details": "Returns the address of the current owner."
      },
      "renounceOwnership()": {
        "details": "Leaves the contract without owner. It will not be possible to call `onlyOwner` functions anymore. Can only be called by the current owner. NOTE: Renouncing ownership will leave the contract without an owner, thereby removing any functionality that is only available to the owner."
      },
      "transferOwnership(address)": {
        "details": "Transfers ownership of the contract to a new account (`newOwner`). Can only be called by the current owner."
      }
    },
    "version": 1
  },
  "userdoc": {
    "kind": "user",
    "methods": {},
    "version": 1
  }
}